{
  "contractName": "BoxingOracle",
  "abi": [
    {
      "constant": true,
      "inputs": [],
      "name": "owner",
      "outputs": [
        {
          "name": "",
          "type": "address"
        }
      ],
      "payable": false,
      "stateMutability": "view",
      "type": "function",
      "signature": "0x8da5cb5b"
    },
    {
      "constant": false,
      "inputs": [
        {
          "name": "newOwner",
          "type": "address"
        }
      ],
      "name": "transferOwnership",
      "outputs": [],
      "payable": false,
      "stateMutability": "nonpayable",
      "type": "function",
      "signature": "0xf2fde38b"
    },
    {
      "anonymous": false,
      "inputs": [
        {
          "indexed": true,
          "name": "previousOwner",
          "type": "address"
        },
        {
          "indexed": true,
          "name": "newOwner",
          "type": "address"
        }
      ],
      "name": "OwnershipTransferred",
      "type": "event",
      "signature": "0x8be0079c531659141344cd1fd0a4f28419497f9722a3daafe3b4186f6b6457e0"
    },
    {
      "constant": true,
      "inputs": [
        {
          "name": "_matchId",
          "type": "bytes32"
        }
      ],
      "name": "matchExists",
      "outputs": [
        {
          "name": "",
          "type": "bool"
        }
      ],
      "payable": false,
      "stateMutability": "view",
      "type": "function",
      "signature": "0xa9345240"
    },
    {
      "constant": false,
      "inputs": [
        {
          "name": "_name",
          "type": "string"
        },
        {
          "name": "_participants",
          "type": "string"
        },
        {
          "name": "_participantCount",
          "type": "uint8"
        },
        {
          "name": "_date",
          "type": "uint256"
        }
      ],
      "name": "addMatch",
      "outputs": [
        {
          "name": "",
          "type": "bytes32"
        }
      ],
      "payable": false,
      "stateMutability": "nonpayable",
      "type": "function",
      "signature": "0xa1d2d314"
    },
    {
      "constant": false,
      "inputs": [
        {
          "name": "_matchId",
          "type": "bytes32"
        },
        {
          "name": "_outcome",
          "type": "uint8"
        },
        {
          "name": "_winner",
          "type": "int8"
        }
      ],
      "name": "declareOutcome",
      "outputs": [],
      "payable": false,
      "stateMutability": "nonpayable",
      "type": "function",
      "signature": "0x7898d334"
    },
    {
      "constant": true,
      "inputs": [],
      "name": "getPendingMatches",
      "outputs": [
        {
          "name": "",
          "type": "bytes32[]"
        }
      ],
      "payable": false,
      "stateMutability": "view",
      "type": "function",
      "signature": "0x5f29d4b1"
    },
    {
      "constant": true,
      "inputs": [],
      "name": "getAllMatches",
      "outputs": [
        {
          "name": "",
          "type": "bytes32[]"
        }
      ],
      "payable": false,
      "stateMutability": "view",
      "type": "function",
      "signature": "0xc17c5a45"
    },
    {
      "constant": true,
      "inputs": [
        {
          "name": "_matchId",
          "type": "bytes32"
        }
      ],
      "name": "getMatch",
      "outputs": [
        {
          "name": "id",
          "type": "bytes32"
        },
        {
          "name": "name",
          "type": "string"
        },
        {
          "name": "participants",
          "type": "string"
        },
        {
          "name": "participantCount",
          "type": "uint8"
        },
        {
          "name": "date",
          "type": "uint256"
        },
        {
          "name": "outcome",
          "type": "uint8"
        },
        {
          "name": "winner",
          "type": "int8"
        }
      ],
      "payable": false,
      "stateMutability": "view",
      "type": "function",
      "signature": "0xfcc6077d"
    },
    {
      "constant": true,
      "inputs": [
        {
          "name": "_pending",
          "type": "bool"
        }
      ],
      "name": "getMostRecentMatch",
      "outputs": [
        {
          "name": "id",
          "type": "bytes32"
        },
        {
          "name": "name",
          "type": "string"
        },
        {
          "name": "participants",
          "type": "string"
        },
        {
          "name": "participantCount",
          "type": "uint8"
        },
        {
          "name": "date",
          "type": "uint256"
        },
        {
          "name": "outcome",
          "type": "uint8"
        },
        {
          "name": "winner",
          "type": "int8"
        }
      ],
      "payable": false,
      "stateMutability": "view",
      "type": "function",
      "signature": "0xbb2b0f58"
    },
    {
      "constant": true,
      "inputs": [],
      "name": "testConnection",
      "outputs": [
        {
          "name": "",
          "type": "bool"
        }
      ],
      "payable": false,
      "stateMutability": "pure",
      "type": "function",
      "signature": "0x3412a15c"
    },
    {
      "constant": true,
      "inputs": [],
      "name": "getAddress",
      "outputs": [
        {
          "name": "",
          "type": "address"
        }
      ],
      "payable": false,
      "stateMutability": "view",
      "type": "function",
      "signature": "0x38cc4831"
    },
    {
      "constant": false,
      "inputs": [],
      "name": "addTestData",
      "outputs": [],
      "payable": false,
      "stateMutability": "nonpayable",
      "type": "function",
      "signature": "0xa212b454"
    }
  ],
  "bytecode": "0x6080604052336000806101000a81548173ffffffffffffffffffffffffffffffffffffffff021916908373ffffffffffffffffffffffffffffffffffffffff160217905550611f03806100536000396000f3fe6080604052600436106100ba576000357c0100000000000000000000000000000000000000000000000000000000900463ffffffff1680633412a15c146100bf57806338cc4831146100ee5780635f29d4b1146101455780637898d334146101b15780638da5cb5b14610206578063a1d2d3141461025d578063a212b454146103e7578063a9345240146103fe578063bb2b0f5814610451578063c17c5a45146105b0578063f2fde38b1461061c578063fcc6077d1461066d575b600080fd5b3480156100cb57600080fd5b506100d46107ca565b604051808215151515815260200191505060405180910390f35b3480156100fa57600080fd5b506101036107d3565b604051808273ffffffffffffffffffffffffffffffffffffffff1673ffffffffffffffffffffffffffffffffffffffff16815260200191505060405180910390f35b34801561015157600080fd5b5061015a6107db565b6040518080602001828103825283818151815260200191508051906020019060200280838360005b8381101561019d578082015181840152602081019050610182565b505050509050019250505060405180910390f35b3480156101bd57600080fd5b50610204600480360360608110156101d457600080fd5b8101908080359060200190929190803560ff169060200190929190803560000b906020019092919050505061095b565b005b34801561021257600080fd5b5061021b610ab7565b604051808273ffffffffffffffffffffffffffffffffffffffff1673ffffffffffffffffffffffffffffffffffffffff16815260200191505060405180910390f35b34801561026957600080fd5b506103d16004803603608081101561028057600080fd5b810190808035906020019064010000000081111561029d57600080fd5b8201836020820111156102af57600080fd5b803590602001918460018302840111640100000000831117156102d157600080fd5b91908080601f016020809104026020016040519081016040528093929190818152602001838380828437600081840152601f19601f8201169050808301925050505050505091929192908035906020019064010000000081111561033457600080fd5b82018360208201111561034657600080fd5b8035906020019184600183028401116401000000008311171561036857600080fd5b91908080601f016020809104026020016040519081016040528093929190818152602001838380828437600081840152601f19601f820116905080830192505050505050509192919290803560ff16906020019092919080359060200190929190505050610adc565b6040518082815260200191505060405180910390f35b3480156103f357600080fd5b506103fc610d7d565b005b34801561040a57600080fd5b506104376004803603602081101561042157600080fd5b8101908080359060200190929190505050611596565b604051808215151515815260200191505060405180910390f35b34801561045d57600080fd5b5061048c6004803603602081101561047457600080fd5b810190808035151590602001909291905050506115d3565b6040518088815260200180602001806020018760ff1660ff1681526020018681526020018560038111156104bc57fe5b60ff1681526020018460000b60000b8152602001838103835289818151815260200191508051906020019080838360005b838110156105085780820151818401526020810190506104ed565b50505050905090810190601f1680156105355780820380516001836020036101000a031916815260200191505b50838103825288818151815260200191508051906020019080838360005b8381101561056e578082015181840152602081019050610553565b50505050905090810190601f16801561059b5780820380516001836020036101000a031916815260200191505b50995050505050505050505060405180910390f35b3480156105bc57600080fd5b506105c5611652565b6040518080602001828103825283818151815260200191508051906020019060200280838360005b838110156106085780820151818401526020810190506105ed565b505050509050019250505060405180910390f35b34801561062857600080fd5b5061066b6004803603602081101561063f57600080fd5b81019080803573ffffffffffffffffffffffffffffffffffffffff169060200190929190505050611710565b005b34801561067957600080fd5b506106a66004803603602081101561069057600080fd5b8101908080359060200190929190505050611865565b6040518088815260200180602001806020018760ff1660ff1681526020018681526020018560038111156106d657fe5b60ff1681526020018460000b60000b8152602001838103835289818151815260200191508051906020019080838360005b83811015610722578082015181840152602081019050610707565b50505050905090810190601f16801561074f5780820380516001836020036101000a031916815260200191505b50838103825288818151815260200191508051906020019080838360005b8381101561078857808201518184015260208101905061076d565b50505050905090810190601f1680156107b55780820380516001836020036101000a031916815260200191505b50995050505050505050505060405180910390f35b60006001905090565b600030905090565b6060600080905060008090505b600180549050811015610857576000600381111561080257fe5b60018281548110151561081157fe5b906000526020600020906006020160050160009054906101000a900460ff16600381111561083b57fe5b141561084a5781806001019250505b80806001019150506107e8565b506060816040519080825280602002602001820160405280156108895781602001602082028038833980820191505090505b5090506000821115610953576000809050600060018054905090505b600081111561095057600060038111156108bb57fe5b60018083038154811015156108cc57fe5b906000526020600020906006020160050160009054906101000a900460ff1660038111156108f657fe5b141561094257600180820381548110151561090d57fe5b906000526020600020906006020160000154838380600101945081518110151561093357fe5b90602001906020020181815250505b8080600190039150506108a5565b50505b809250505090565b6000809054906101000a900473ffffffffffffffffffffffffffffffffffffffff1673ffffffffffffffffffffffffffffffffffffffff163373ffffffffffffffffffffffffffffffffffffffff161415156109b657600080fd5b6109bf83611596565b15156109ca57600080fd5b60006109d584611aaf565b905060006001828154811015156109e857fe5b90600052602060002090600602019050600380811115610a0457fe5b846003811115610a1057fe5b1415610a4c5760008360000b12158015610a4057508260ff168160030160009054906101000a900460ff1660ff16115b1515610a4b57600080fd5b5b838160050160006101000a81548160ff02191690836003811115610a6c57fe5b0217905550600380811115610a7d57fe5b846003811115610a8957fe5b1415610ab057828160050160016101000a81548160ff021916908360000b60ff1602179055505b5050505050565b6000809054906101000a900473ffffffffffffffffffffffffffffffffffffffff1681565b60008060009054906101000a900473ffffffffffffffffffffffffffffffffffffffff1673ffffffffffffffffffffffffffffffffffffffff163373ffffffffffffffffffffffffffffffffffffffff16141515610b3957600080fd5b60008584846040516020018084805190602001908083835b602083101515610b765780518252602082019150602081019050602083039250610b51565b6001836020036101000a0380198251168184511680821785525050505050509050018360ff1660ff167f01000000000000000000000000000000000000000000000000000000000000000281526001018281526020019350505050604051602081830303815290604052805190602001209050610bf281611596565b151515610bfe57600080fd5b600060018060e0604051908101604052808581526020018a81526020018981526020018860ff16815260200187815260200160006003811115610c3d57fe5b81526020017fffffffffffffffffffffffffffffffffffffffffffffffffffffffffffffffff60000b81525090806001815401808255809150509060018203906000526020600020906006020160009091929091909150600082015181600001556020820151816001019080519060200190610cba929190611e0e565b506040820151816002019080519060200190610cd7929190611e0e565b5060608201518160030160006101000a81548160ff021916908360ff1602179055506080820151816004015560a08201518160050160006101000a81548160ff02191690836003811115610d2757fe5b021790555060c08201518160050160016101000a81548160ff021916908360000b60ff16021790555050500390506001810160026000848152602001908152602001600020819055508192505050949350505050565b6000809054906101000a900473ffffffffffffffffffffffffffffffffffffffff1673ffffffffffffffffffffffffffffffffffffffff163373ffffffffffffffffffffffffffffffffffffffff16141515610dd857600080fd5b610eb36040805190810160405280601781526020017f506163717569616f2076732e204d6179576561746865720000000000000000008152506040805190810160405280601381526020017f506163717569616f7c4d617977656174686572000000000000000000000000008152506002610eae610100604051908101604052806107e261ffff168152602001600860ff168152602001600d60ff168152602001600060ff168152602001600060ff168152602001600060ff168152602001600060ff168152602001600060ff16815250611acf565b610adc565b50610f8f6040805190810160405280601781526020017f4d6163717569616f2076732e20506179776561746865720000000000000000008152506040805190810160405280601381526020017f4d6163717569616f7c50617977656174686572000000000000000000000000008152506002610f8a610100604051908101604052806107e261ffff168152602001600860ff168152602001600f60ff168152602001600060ff168152602001600060ff168152602001600060ff168152602001600060ff168152602001600060ff16815250611acf565b610adc565b5061106b6040805190810160405280601881526020017f506163776561746865722076732e204d616361727468757200000000000000008152506040805190810160405280601481526020017f506163776561746865727c4d61636172746875720000000000000000000000008152506002611066610100604051908101604052806107e261ffff168152602001600960ff168152602001600360ff168152602001600060ff168152602001600060ff168152602001600060ff168152602001600060ff168152602001600060ff16815250611acf565b610adc565b506111476040805190810160405280601481526020017f4d61636172746875722076732e205472756d616e0000000000000000000000008152506040805190810160405280601081526020017f4d61636172746875727c5472756d616e000000000000000000000000000000008152506002611142610100604051908101604052806107e261ffff168152602001600960ff168152602001600360ff168152602001600060ff168152602001600060ff168152602001600060ff168152602001600060ff168152602001600060ff16815250611acf565b610adc565b506112236040805190810160405280601481526020017f4d6163617175652076732e2050726567756e746f0000000000000000000000008152506040805190810160405280601081526020017f4d6163617175657c50726567756e746f00000000000000000000000000000000815250600261121e610100604051908101604052806107e261ffff168152602001600960ff168152602001601560ff168152602001600060ff168152602001600060ff168152602001600060ff168152602001600060ff168152602001600060ff16815250611acf565b610adc565b506112ff6040805190810160405280601781526020017f46617273776f7274682076732e205765726e7374726f6d0000000000000000008152506040805190810160405280601381526020017f46617273776f7274687c5765726e7374726f6d0000000000000000000000000081525060026112fa610100604051908101604052806107e261ffff168152602001600960ff168152602001601d60ff168152602001600060ff168152602001600060ff168152602001600060ff168152602001600060ff168152602001600060ff16815250611acf565b610adc565b506113db6040805190810160405280601581526020017f466f7274696e627261732076732e2048616d6c657400000000000000000000008152506040805190810160405280601181526020017f466f7274696e627261737c48616d6c657400000000000000000000000000000081525060026113d6610100604051908101604052806107e261ffff168152602001600a60ff168152602001600a60ff168152602001600060ff168152602001600060ff168152602001600060ff168152602001600060ff168152602001600060ff16815250611acf565b610adc565b506114b76040805190810160405280601581526020017f466f6f6c69636c652076732e2050726574656e646f00000000000000000000008152506040805190810160405280601181526020017f466f6f6c69636c657c50726574656e646f00000000000000000000000000000081525060026114b2610100604051908101604052806107e261ffff168152602001600b60ff168152602001600b60ff168152602001600060ff168152602001600060ff168152602001600060ff168152602001600060ff168152602001600060ff16815250611acf565b610adc565b506115936040805190810160405280601581526020017f506172746869616e2076732e20536379746869616e00000000000000000000008152506040805190810160405280601181526020017f506172746869616e7c536379746869616e000000000000000000000000000000815250600261158e610100604051908101604052806107e261ffff168152602001600b60ff168152602001600c60ff168152602001600060ff168152602001600060ff168152602001600060ff168152602001600060ff168152602001600060ff16815250611acf565b610adc565b50565b60008060018054905014156115ae57600090506115ce565b600060026000848152602001908152602001600020549050600081119150505b919050565b60006060806000806000806000806001029050606089156115fd576115f66107db565b9050611608565b611605611652565b90505b60008151111561162e5780600081518110151561162157fe5b9060200190602002015191505b61163782611865565b98509850985098509850985098505050919395979092949650565b6060806001805490506040519080825280602002602001820160405280156116895781602001602082028038833980820191505090505b50905060006001805490501115611709576000809050600060018054905090505b60008111156117065760018082038154811015156116c457fe5b90600052602060002090600602016000015483838060010194508151811015156116ea57fe5b90602001906020020181815250508080600190039150506116aa565b50505b8091505090565b6000809054906101000a900473ffffffffffffffffffffffffffffffffffffffff1673ffffffffffffffffffffffffffffffffffffffff163373ffffffffffffffffffffffffffffffffffffffff1614151561176b57600080fd5b600073ffffffffffffffffffffffffffffffffffffffff168173ffffffffffffffffffffffffffffffffffffffff16141515156117a757600080fd5b8073ffffffffffffffffffffffffffffffffffffffff166000809054906101000a900473ffffffffffffffffffffffffffffffffffffffff1673ffffffffffffffffffffffffffffffffffffffff167f8be0079c531659141344cd1fd0a4f28419497f9722a3daafe3b4186f6b6457e060405160405180910390a3806000806101000a81548173ffffffffffffffffffffffffffffffffffffffff021916908373ffffffffffffffffffffffffffffffffffffffff16021790555050565b600060608060008060008061187988611596565b15611a3b576000600161188b8a611aaf565b81548110151561189757fe5b90600052602060002090600602019050806000015481600101826002018360030160009054906101000a900460ff1684600401548560050160009054906101000a900460ff168660050160019054906101000a900460000b858054600181600116156101000203166002900480601f0160208091040260200160405190810160405280929190818152602001828054600181600116156101000203166002900480156119845780601f1061195957610100808354040283529160200191611984565b820191906000526020600020905b81548152906001019060200180831161196757829003601f168201915b50505050509550848054600181600116156101000203166002900480601f016020809104026020016040519081016040528092919081815260200182805460018160011615610100020316600290048015611a205780601f106119f557610100808354040283529160200191611a20565b820191906000526020600020905b815481529060010190602001808311611a0357829003601f168201915b50505050509450975097509750975097509750975050611aa4565b8760008060007fffffffffffffffffffffffffffffffffffffffffffffffffffffffffffffffff60206040519081016040528060008152509392919060206040519081016040528060008152509392919083935082925080905096509650965096509650965096505b919395979092949650565b600060016002600084815260200190815260200160002054039050919050565b6000806107b290505b826000015161ffff168161ffff161015611b1f57611af581611d8d565b15611b08576301e2850082019150611b12565b6301e13380820191505b8080600101915050611ad8565b611b27611e8e565b601f816000600c81101515611b3857fe5b602002019060ff16908160ff1681525050611b568460000151611d8d565b15611b8257601d816001600c81101515611b6c57fe5b602002019060ff16908160ff1681525050611ba5565b601c816001600c81101515611b9357fe5b602002019060ff16908160ff16815250505b601f816002600c81101515611bb657fe5b602002019060ff16908160ff1681525050601e816003600c81101515611bd857fe5b602002019060ff16908160ff1681525050601f816004600c81101515611bfa57fe5b602002019060ff16908160ff1681525050601e816005600c81101515611c1c57fe5b602002019060ff16908160ff1681525050601f816006600c81101515611c3e57fe5b602002019060ff16908160ff1681525050601f816007600c81101515611c6057fe5b602002019060ff16908160ff1681525050601e816008600c81101515611c8257fe5b602002019060ff16908160ff1681525050601f816009600c81101515611ca457fe5b602002019060ff16908160ff1681525050601e81600a600c81101515611cc657fe5b602002019060ff16908160ff1681525050601f81600b600c81101515611ce857fe5b602002019060ff16908160ff1681525050600191505b836020015160ff168261ffff161015611d4457806001830361ffff16600c81101515611d2657fe5b602002015160ff166201518002830192508180600101925050611cfe565b600184604001510360ff16620151800283019250836060015160ff16610e100283019250836080015160ff16603c02830192508360a0015160ff16830192508292505050919050565b60008060048361ffff16811515611da057fe5b0661ffff16141515611db55760009050611e09565b600060648361ffff16811515611dc757fe5b0661ffff16141515611ddc5760019050611e09565b60006101908361ffff16811515611def57fe5b0661ffff16141515611e045760009050611e09565b600190505b919050565b828054600181600116156101000203166002900490600052602060002090601f016020900481019282601f10611e4f57805160ff1916838001178555611e7d565b82800160010185558215611e7d579182015b82811115611e7c578251825591602001919060010190611e61565b5b509050611e8a9190611eb2565b5090565b61018060405190810160405280600c90602082028038833980820191505090505090565b611ed491905b80821115611ed0576000816000905550600101611eb8565b5090565b9056fea165627a7a72305820603133d17cb42865abc8a630de7ea9c3f9fdfd90e9334481f114ac16a1ef2c820029",
  "source": "pragma solidity >=0.4.21 <0.6.0;\n\nimport \"./Ownable.sol\"; \nimport \"./DateLib.sol\";\n\n/*\nTEST: \n- testConnection \n- getAddress\n- matchExists(0) \n- matchExists(1)\n- declareOutcome(0, 2)\n- getPendingMatches()\n- getAllMatches()\n- getMatch(0)\n- getMostRecentMatch(true)\n- addTestData()\n- matchExists(0) \n- matchExists(1)\n- declareOutcome(0, 2)\n- getPendingMatches()               \n- getAllMatches()                   \n- getMatch(0)\n- getMostRecentMatch(true)\n- getMostRecentMatch(false) \n- getMatch(0x...)                   \n- declareOutcome(0x..., 2)              \n- getMostRecentMatch(true)\n- getMostRecentMatch(false)\n- getMatch(0x...)              \n- add duplicate match      \n*/\n\n/// @title BoxingOracle\n/// @author John R. Kosinski\n/// @notice Collects and provides information on boxing matches and their outcomes \ncontract BoxingOracle is Ownable {\n    Match[] matches; \n    mapping(bytes32 => uint) matchIdToIndex; \n\n    using DateLib for DateLib.DateTime;\n\n\n    //defines a match along with its outcome\n    struct Match {\n        bytes32 id;\n        string name;\n        string participants;\n        uint8 participantCount;\n        uint date; \n        MatchOutcome outcome;\n        int8 winner;\n    }\n\n    //possible match outcomes \n    enum MatchOutcome {\n        Pending,    //match has not been fought to decision\n        Underway,   //match has started & is underway\n        Draw,       //anything other than a clear winner (e.g. cancelled)\n        Decided     //index of participant who is the winner \n    }\n\n\n    /// @notice returns the array index of the match with the given id \n    /// @dev if the match id is invalid, then the return value will be incorrect and may cause error; you must call matchExists(_matchId) first!\n    /// @param _matchId the match id to get\n    /// @return an array index \n    function _getMatchIndex(bytes32 _matchId) private view returns (uint) {\n        return matchIdToIndex[_matchId]-1; \n    }\n\n\n    /// @notice determines whether a match exists with the given id \n    /// @param _matchId the match id to test\n    /// @return true if match exists and id is valid\n    function matchExists(bytes32 _matchId) public view returns (bool) {\n        if (matches.length == 0)\n            return false;\n        uint index = matchIdToIndex[_matchId]; \n        return (index > 0); \n    }\n\n    /// @notice puts a new pending match into the blockchain \n    /// @param _name descriptive name for the match (e.g. Pac vs. Mayweather 2016)\n    /// @param _participants |-delimited string of participants names (e.g. \"Manny Pac|Floyd May\")\n    /// @param _participantCount number of participants \n    /// @param _date date set for the match \n    /// @return the unique id of the newly created match \n    function addMatch(string memory _name, string memory _participants, uint8 _participantCount, uint _date) onlyOwner public returns (bytes32) {\n\n        //hash the crucial info to get a unique id \n        bytes32 id = keccak256(abi.encodePacked(_name, _participantCount, _date)); \n\n        //require that the match be unique (not already added) \n        require(!matchExists(id));\n        \n        //add the match \n        uint newIndex = matches.push(Match(id, _name, _participants, _participantCount, _date, MatchOutcome.Pending, -1))-1; \n        matchIdToIndex[id] = newIndex+1;\n        \n        //return the unique id of the new match\n        return id;\n    }\n\n    /// @notice sets the outcome of a predefined match, permanently on the blockchain\n    /// @param _matchId unique id of the match to modify\n    /// @param _outcome outcome of the match \n    function declareOutcome(bytes32 _matchId, MatchOutcome _outcome, int8 _winner) onlyOwner external {\n\n        //require that it exists\n        require(matchExists(_matchId)); \n\n        //get the match \n        uint index = _getMatchIndex(_matchId);\n        Match storage theMatch = matches[index]; \n\n        if (_outcome == MatchOutcome.Decided) \n            require(_winner >= 0 && theMatch.participantCount > uint8(_winner)); \n\n        //set the outcome \n        theMatch.outcome = _outcome;\n        \n        //set the winner (if there is one)\n        if (_outcome == MatchOutcome.Decided) \n            theMatch.winner = _winner;\n    }\n\n    /// @notice gets the unique ids of all pending matches, in reverse chronological order\n    /// @return an array of unique match ids\n    function getPendingMatches() public view returns (bytes32[] memory) {\n        uint count = 0; \n\n        //get count of pending matches \n        for (uint i = 0; i < matches.length; i++) {\n            if (matches[i].outcome == MatchOutcome.Pending) \n                count++; \n        }\n\n        //collect up all the pending matches\n        bytes32[] memory output = new bytes32[](count); \n\n        if (count > 0) {\n            uint index = 0;\n            for (uint n = matches.length; n > 0; n--) {\n                if (matches[n-1].outcome == MatchOutcome.Pending) \n                    output[index++] = matches[n-1].id;\n            }\n        } \n\n        return output; \n    }\n\n    /// @notice gets the unique ids of matches, pending and decided, in reverse chronological order\n    /// @return an array of unique match ids\n    function getAllMatches() public view returns (bytes32[] memory) {\n        bytes32[] memory output = new bytes32[](matches.length); \n\n        //get all ids \n        if (matches.length > 0) {\n            uint index = 0;\n            for (uint n = matches.length; n > 0; n--) {\n                output[index++] = matches[n-1].id;\n            }\n        }\n        \n        return output; \n    }\n\n    /// @notice gets the specified match \n    /// @param _matchId the unique id of the desired match \n    /// @return match data of the specified match \n    function getMatch(bytes32 _matchId) public view returns (\n        bytes32 id,\n        string memory name, \n        string memory participants,\n        uint8 participantCount,\n        uint date, \n        MatchOutcome outcome, \n        int8 winner) {\n        \n        //get the match \n        if (matchExists(_matchId)) {\n            Match storage theMatch = matches[_getMatchIndex(_matchId)];\n            return (theMatch.id, theMatch.name, theMatch.participants, theMatch.participantCount, theMatch.date, theMatch.outcome, theMatch.winner); \n        }\n        else {\n            return (_matchId, \"\", \"\", 0, 0, MatchOutcome.Pending, -1); \n        }\n    }\n\n    /// @notice gets the most recent match or pending match \n    /// @param _pending if true, will return only the most recent pending match; otherwise, returns the most recent match either pending or completed\n    /// @return match data \n    function getMostRecentMatch(bool _pending) public view returns (\n        bytes32 id,\n        string memory name, \n        string memory participants,\n        uint8 participantCount,\n        uint date, \n        MatchOutcome outcome, \n        int8 winner) {\n\n        bytes32 matchId = 0; \n        bytes32[] memory ids;\n\n        if (_pending) {\n            ids = getPendingMatches(); \n        } else {\n            ids = getAllMatches();\n        }\n        if (ids.length > 0) {\n            matchId = ids[0]; \n        }\n        \n        //by default, return a null match\n        return getMatch(matchId); \n    }\n\n    /// @notice can be used by a client contract to ensure that they've connected to this contract interface successfully\n    /// @return true, unconditionally \n    function testConnection() public pure returns (bool) {\n        return true; \n    }\n\n    /// @notice gets the address of this contract \n    /// @return address \n    function getAddress() public view returns (address) {\n        return address(this);\n    }\n\n    /// @notice for testing \n    function addTestData() external onlyOwner {\n        addMatch(\"Pacquiao vs. MayWeather\", \"Pacquiao|Mayweather\", 2, DateLib.DateTime(2018, 8, 13, 0, 0, 0, 0, 0).toUnixTimestamp());\n        addMatch(\"Macquiao vs. Payweather\", \"Macquiao|Payweather\", 2, DateLib.DateTime(2018, 8, 15, 0, 0, 0, 0, 0).toUnixTimestamp());\n        addMatch(\"Pacweather vs. Macarthur\", \"Pacweather|Macarthur\", 2, DateLib.DateTime(2018, 9, 3, 0, 0, 0, 0, 0).toUnixTimestamp());\n        addMatch(\"Macarthur vs. Truman\", \"Macarthur|Truman\", 2, DateLib.DateTime(2018, 9, 3, 0, 0, 0, 0, 0).toUnixTimestamp());\n        addMatch(\"Macaque vs. Pregunto\", \"Macaque|Pregunto\", 2, DateLib.DateTime(2018, 9, 21, 0, 0, 0, 0, 0).toUnixTimestamp());\n        addMatch(\"Farsworth vs. Wernstrom\", \"Farsworth|Wernstrom\", 2, DateLib.DateTime(2018, 9, 29, 0, 0, 0, 0, 0).toUnixTimestamp());\n        addMatch(\"Fortinbras vs. Hamlet\", \"Fortinbras|Hamlet\", 2, DateLib.DateTime(2018, 10, 10, 0, 0, 0, 0, 0).toUnixTimestamp());\n        addMatch(\"Foolicle vs. Pretendo\", \"Foolicle|Pretendo\", 2, DateLib.DateTime(2018, 11, 11, 0, 0, 0, 0, 0).toUnixTimestamp());\n        addMatch(\"Parthian vs. Scythian\", \"Parthian|Scythian\", 2, DateLib.DateTime(2018, 11, 12, 0, 0, 0, 0, 0).toUnixTimestamp());\n    }\n}",
  "sourcePath": "/tmp/Monografia/eth-oracle/oracle/contracts/BoxingOracle.sol",
  "compiler": {
    "name": "solc",
    "version": "0.5.0+commit.1d4f565a.Emscripten.clang"
  },
  "schemaVersion": "3.0.8",
  "updatedAt": "2019-05-02T16:12:18.467Z",
  "devdoc": {
    "author": "John R. Kosinski",
    "methods": {
      "addMatch(string,string,uint8,uint256)": {
        "params": {
          "_date": "date set for the match ",
          "_name": "descriptive name for the match (e.g. Pac vs. Mayweather 2016)",
          "_participantCount": "number of participants ",
          "_participants": "|-delimited string of participants names (e.g. \"Manny Pac|Floyd May\")"
        },
        "return": "the unique id of the newly created match "
      },
      "declareOutcome(bytes32,uint8,int8)": {
        "params": {
          "_matchId": "unique id of the match to modify",
          "_outcome": "outcome of the match "
        }
      },
      "getAddress()": {
        "return": "address "
      },
      "getAllMatches()": {
        "return": "an array of unique match ids"
      },
      "getMatch(bytes32)": {
        "params": {
          "_matchId": "the unique id of the desired match "
        },
        "return": "match data of the specified match "
      },
      "getMostRecentMatch(bool)": {
        "params": {
          "_pending": "if true, will return only the most recent pending match; otherwise, returns the most recent match either pending or completed"
        },
        "return": "match data "
      },
      "getPendingMatches()": {
        "return": "an array of unique match ids"
      },
      "matchExists(bytes32)": {
        "params": {
          "_matchId": "the match id to test"
        },
        "return": "true if match exists and id is valid"
      },
      "testConnection()": {
        "return": "true, unconditionally "
      },
      "transferOwnership(address)": {
        "details": "Allows the current owner to transfer control of the contract to a newOwner.",
        "params": {
          "newOwner": "The address to transfer ownership to."
        }
      }
    },
    "title": "BoxingOracle"
  },
  "userdoc": {
    "methods": {
      "addMatch(string,string,uint8,uint256)": {
        "notice": "puts a new pending match into the blockchain "
      },
      "addTestData()": {
        "notice": "for testing "
      },
      "declareOutcome(bytes32,uint8,int8)": {
        "notice": "sets the outcome of a predefined match, permanently on the blockchain"
      },
      "getAddress()": {
        "notice": "gets the address of this contract "
      },
      "getAllMatches()": {
        "notice": "gets the unique ids of matches, pending and decided, in reverse chronological order"
      },
      "getMatch(bytes32)": {
        "notice": "gets the specified match "
      },
      "getMostRecentMatch(bool)": {
        "notice": "gets the most recent match or pending match "
      },
      "getPendingMatches()": {
        "notice": "gets the unique ids of all pending matches, in reverse chronological order"
      },
      "matchExists(bytes32)": {
        "notice": "determines whether a match exists with the given id "
      },
      "testConnection()": {
        "notice": "can be used by a client contract to ensure that they've connected to this contract interface successfully"
      }
    },
    "notice": "Collects and provides information on boxing matches and their outcomes "
  }
}