{
  "contractName": "Oracle",
  "abi": [
    {
      "constant": true,
      "inputs": [],
      "name": "oracleAddress",
      "outputs": [
        {
          "name": "",
          "type": "address"
        }
      ],
      "payable": false,
      "stateMutability": "view",
      "type": "function"
    },
    {
      "inputs": [
        {
          "name": "_oracleAddress",
          "type": "address"
        }
      ],
      "payable": false,
      "stateMutability": "nonpayable",
      "type": "constructor"
    },
    {
      "anonymous": false,
      "inputs": [
        {
          "indexed": false,
          "name": "id",
          "type": "uint256"
        },
        {
          "indexed": false,
          "name": "urlToQuery",
          "type": "string"
        },
        {
          "indexed": false,
          "name": "attributeToFetch",
          "type": "string"
        }
      ],
      "name": "NewRequest",
      "type": "event"
    },
    {
      "anonymous": false,
      "inputs": [
        {
          "indexed": false,
          "name": "id",
          "type": "uint256"
        },
        {
          "indexed": false,
          "name": "urlToQuery",
          "type": "string"
        },
        {
          "indexed": false,
          "name": "attributeToFetch",
          "type": "string"
        },
        {
          "indexed": false,
          "name": "valueRetrieved",
          "type": "string"
        }
      ],
      "name": "UpdatedRequest",
      "type": "event"
    },
    {
      "constant": false,
      "inputs": [
        {
          "name": "urlToQuery",
          "type": "string"
        },
        {
          "name": "attributeToFetch",
          "type": "string"
        }
      ],
      "name": "createRequest",
      "outputs": [],
      "payable": false,
      "stateMutability": "nonpayable",
      "type": "function"
    },
    {
      "constant": false,
      "inputs": [
        {
          "name": "id",
          "type": "uint256"
        },
        {
          "name": "valueRetrieved",
          "type": "string"
        }
      ],
      "name": "UpdateRequest",
      "outputs": [],
      "payable": false,
      "stateMutability": "nonpayable",
      "type": "function"
    }
  ],
  "bytecode": "0x6080604052600060025534801561001557600080fd5b50604051602080610aa18339810180604052602081101561003557600080fd5b8101908080519060200190929190505050806000806101000a81548173ffffffffffffffffffffffffffffffffffffffff021916908373ffffffffffffffffffffffffffffffffffffffff16021790555050610a0b806100966000396000f3fe608060405260043610610057576000357c0100000000000000000000000000000000000000000000000000000000900463ffffffff168063a89ae4ba1461005c578063df89f819146100b3578063e32fdc2114610212575b600080fd5b34801561006857600080fd5b506100716102e4565b604051808273ffffffffffffffffffffffffffffffffffffffff1673ffffffffffffffffffffffffffffffffffffffff16815260200191505060405180910390f35b3480156100bf57600080fd5b50610210600480360360408110156100d657600080fd5b81019080803590602001906401000000008111156100f357600080fd5b82018360208201111561010557600080fd5b8035906020019184600183028401116401000000008311171561012757600080fd5b91908080601f016020809104026020016040519081016040528093929190818152602001838380828437600081840152601f19601f8201169050808301925050505050505091929192908035906020019064010000000081111561018a57600080fd5b82018360208201111561019c57600080fd5b803590602001918460018302840111640100000000831117156101be57600080fd5b91908080601f016020809104026020016040519081016040528093929190818152602001838380828437600081840152601f19601f820116905080830192505050505050509192919290505050610309565b005b34801561021e57600080fd5b506102e26004803603604081101561023557600080fd5b81019080803590602001909291908035906020019064010000000081111561025c57600080fd5b82018360208201111561026e57600080fd5b8035906020019184600183028401116401000000008311171561029057600080fd5b91908080601f016020809104026020016040519081016040528093929190818152602001838380828437600081840152601f19601f8201169050808301925050505050505091929192905050506104f7565b005b6000809054906101000a900473ffffffffffffffffffffffffffffffffffffffff1681565b60016080604051908101604052806002548152602001848152602001838152602001602060405190810160405280600081525081525090806001815401808255809150509060018203906000526020600020906004020160009091929091909150600082015181600001556020820151816001019080519060200190610390929190610911565b5060408201518160020190805190602001906103ad929190610911565b5060608201518160030190805190602001906103ca929190610911565b505050507f0312239616abfb14f7ffa065155abb0ca047274d86c965890db4c8a48b8ce4b66002548383604051808481526020018060200180602001838103835285818151815260200191508051906020019080838360005b8381101561043e578082015181840152602081019050610423565b50505050905090810190601f16801561046b5780820380516001836020036101000a031916815260200191505b50838103825284818151815260200191508051906020019080838360005b838110156104a4578082015181840152602081019050610489565b50505050905090810190601f1680156104d15780820380516001836020036101000a031916815260200191505b509550505050505060405180910390a16002600081548092919060010191905055505050565b6000809054906101000a900473ffffffffffffffffffffffffffffffffffffffff1673ffffffffffffffffffffffffffffffffffffffff163373ffffffffffffffffffffffffffffffffffffffff1614151561055257600080fd5b61055a610991565b60018381548110151561056957fe5b90600052602060002090600402016080604051908101604052908160008201548152602001600182018054600181600116156101000203166002900480601f0160208091040260200160405190810160405280929190818152602001828054600181600116156101000203166002900480156106265780601f106105fb57610100808354040283529160200191610626565b820191906000526020600020905b81548152906001019060200180831161060957829003601f168201915b50505050508152602001600282018054600181600116156101000203166002900480601f0160208091040260200160405190810160405280929190818152602001828054600181600116156101000203166002900480156106c85780601f1061069d576101008083540402835291602001916106c8565b820191906000526020600020905b8154815290600101906020018083116106ab57829003601f168201915b50505050508152602001600382018054600181600116156101000203166002900480601f01602080910402602001604051908101604052809291908181526020018280546001816001161561010002031660029004801561076a5780601f1061073f5761010080835404028352916020019161076a565b820191906000526020600020905b81548152906001019060200180831161074d57829003601f168201915b50505050508152505090508181606001819052507f51f1e1f00d186e79f8ea7c82be079fcdd49fe881904a9cdc1903345eb69d3831816000015182602001518360400151846060015160405180858152602001806020018060200180602001848103845287818151815260200191508051906020019080838360005b838110156108015780820151818401526020810190506107e6565b50505050905090810190601f16801561082e5780820380516001836020036101000a031916815260200191505b50848103835286818151815260200191508051906020019080838360005b8381101561086757808201518184015260208101905061084c565b50505050905090810190601f1680156108945780820380516001836020036101000a031916815260200191505b50848103825285818151815260200191508051906020019080838360005b838110156108cd5780820151818401526020810190506108b2565b50505050905090810190601f1680156108fa5780820380516001836020036101000a031916815260200191505b5097505050505050505060405180910390a1505050565b828054600181600116156101000203166002900490600052602060002090601f016020900481019282601f1061095257805160ff1916838001178555610980565b82800160010185558215610980579182015b8281111561097f578251825591602001919060010190610964565b5b50905061098d91906109ba565b5090565b608060405190810160405280600081526020016060815260200160608152602001606081525090565b6109dc91905b808211156109d85760008160009055506001016109c0565b5090565b9056fea165627a7a723058205307815fa29bee334c67c40b533f4a182a0c39cde5318a91a51d85f530fbeedd0029",
  "source": "pragma solidity >=0.4.21 <0.6.0;\n\n\ncontract Oracle {\n  address public oracleAddress;\n  Request[] requests;\n  uint currentId = 0;\n\n  // defines a general api request\n  struct Request {\n    uint id;                    //request id\n    string urlToQuery;          //API url\n    string attributeToFetch;    //json attribute (key) to retrieve in the response\n    string valueRetrieved;      //value from key\n  }\n\n  constructor (address _oracleAddress) public {\n    oracleAddress = _oracleAddress;\n  }\n\n  event NewRequest (\n    uint id,\n    string urlToQuery,\n    string attributeToFetch\n  );\n\n  event UpdatedRequest (\n    uint id,\n    string urlToQuery,\n    string attributeToFetch,\n    string valueRetrieved\n  );\n\n  function createRequest (\n    string memory urlToQuery,\n    string memory attributeToFetch\n  )\n  public\n  {\n    requests.push(Request(currentId, urlToQuery, attributeToFetch, \"\"));\n\n    // launch event to be detected by oracle outside of blockchain\n    emit NewRequest (\n      currentId,\n      urlToQuery,\n      attributeToFetch\n    );\n\n    currentId++;\n  }\n\n  function UpdateRequest (\n    uint id,\n    string memory valueRetrieved\n  ) public {\n    require(msg.sender == oracleAddress);\n\n    Request memory currRequest = requests[id];\n\n    currRequest.valueRetrieved = valueRetrieved;\n\n    // only for logging purposes\n    emit UpdatedRequest (\n      currRequest.id,\n      currRequest.urlToQuery,\n      currRequest.attributeToFetch,\n      currRequest.valueRetrieved\n    );\n\n  }\n}\n",
  "sourcePath": "/tmp/Monografia/eth-oracle/oracle-sc/contracts/Oracle.sol",
  "compiler": {
    "name": "solc",
    "version": "0.5.0+commit.1d4f565a.Emscripten.clang"
  },
  "schemaVersion": "3.0.8",
  "updatedAt": "2019-05-16T14:08:59.086Z",
  "devdoc": {
    "methods": {}
  },
  "userdoc": {
    "methods": {}
  }
}