{
  "contractName": "Oracle",
  "abi": [
    {
      "anonymous": false,
      "inputs": [
        {
          "indexed": false,
          "name": "id",
          "type": "uint256"
        },
        {
          "indexed": false,
          "name": "urlToQuery",
          "type": "string"
        },
        {
          "indexed": false,
          "name": "attributeToFetch",
          "type": "string"
        }
      ],
      "name": "NewRequest",
      "type": "event",
      "signature": "0x0312239616abfb14f7ffa065155abb0ca047274d86c965890db4c8a48b8ce4b6"
    },
    {
      "anonymous": false,
      "inputs": [
        {
          "indexed": false,
          "name": "id",
          "type": "uint256"
        },
        {
          "indexed": false,
          "name": "urlToQuery",
          "type": "string"
        },
        {
          "indexed": false,
          "name": "attributeToFetch",
          "type": "string"
        },
        {
          "indexed": false,
          "name": "agreedValue",
          "type": "string"
        }
      ],
      "name": "UpdatedRequest",
      "type": "event",
      "signature": "0x51f1e1f00d186e79f8ea7c82be079fcdd49fe881904a9cdc1903345eb69d3831"
    },
    {
      "constant": false,
      "inputs": [
        {
          "name": "urlToQuery",
          "type": "string"
        },
        {
          "name": "attributeToFetch",
          "type": "string"
        }
      ],
      "name": "createRequest",
      "outputs": [],
      "payable": false,
      "stateMutability": "nonpayable",
      "type": "function",
      "signature": "0xdf89f819"
    },
    {
      "constant": false,
      "inputs": [
        {
          "name": "_id",
          "type": "uint256"
        },
        {
          "name": "_valueRetrieved",
          "type": "string"
        }
      ],
      "name": "updateRequest",
      "outputs": [],
      "payable": false,
      "stateMutability": "nonpayable",
      "type": "function",
      "signature": "0xcfb0ac99"
    }
  ],
  "bytecode": "0x608060405260006001556002805534801561001957600080fd5b50610b47806100296000396000f3fe60806040526004361061004c576000357c0100000000000000000000000000000000000000000000000000000000900463ffffffff168063cfb0ac9914610051578063df89f81914610123575b600080fd5b34801561005d57600080fd5b506101216004803603604081101561007457600080fd5b81019080803590602001909291908035906020019064010000000081111561009b57600080fd5b8201836020820111156100ad57600080fd5b803590602001918460018302840111640100000000831117156100cf57600080fd5b91908080601f016020809104026020016040519081016040528093929190818152602001838380828437600081840152601f19601f820116905080830192505050505050509192919290505050610282565b005b34801561012f57600080fd5b506102806004803603604081101561014657600080fd5b810190808035906020019064010000000081111561016357600080fd5b82018360208201111561017557600080fd5b8035906020019184600183028401116401000000008311171561019757600080fd5b91908080601f016020809104026020016040519081016040528093929190818152602001838380828437600081840152601f19601f820116905080830192505050505050509192919290803590602001906401000000008111156101fa57600080fd5b82018360208201111561020c57600080fd5b8035906020019184600183028401116401000000008311171561022e57600080fd5b91908080601f016020809104026020016040519081016040528093929190818152602001838380828437600081840152601f19601f8201169050808301925050505050505091929192905050506106bf565b005b6000808381548110151561029257fe5b9060005260206000209060070201905060018160060160003373ffffffffffffffffffffffffffffffffffffffff1673ffffffffffffffffffffffffffffffffffffffff1681526020019081526020016000205414156106ba5760028160060160003373ffffffffffffffffffffffffffffffffffffffff1673ffffffffffffffffffffffffffffffffffffffff16815260200190815260200160002081905550600080905060008090505b8015156103b357600083600501600084815260200190815260200160002080546001816001161561010002031660029004905014156103a657600190508383600501600084815260200190815260200160002090805190602001906103a49291906109f6565b505b818060010192505061033e565b600080905060008090505b84600101548110156106b55760608560050160008381526020019081526020016000208054600181600116156101000203166002900480601f0160208091040260200160405190810160405280929190818152602001828054600181600116156101000203166002900480156104755780601f1061044a57610100808354040283529160200191610475565b820191906000526020600020905b81548152906001019060200180831161045857829003601f168201915b5050505050905060608790508080519060200120828051906020012014156106a65783806001019450506002548414156106a557878760040190805190602001906104c19291906109f6565b507f51f1e1f00d186e79f8ea7c82be079fcdd49fe881904a9cdc1903345eb69d3831876000015488600201896003018a6004016040518085815260200180602001806020018060200184810384528781815460018160011615610100020316600290048152602001915080546001816001161561010002031660029004801561058b5780601f106105605761010080835404028352916020019161058b565b820191906000526020600020905b81548152906001019060200180831161056e57829003601f168201915b505084810383528681815460018160011615610100020316600290048152602001915080546001816001161561010002031660029004801561060e5780601f106105e35761010080835404028352916020019161060e565b820191906000526020600020905b8154815290600101906020018083116105f157829003601f168201915b50508481038252858181546001816001161561010002031660029004815260200191508054600181600116156101000203166002900480156106915780601f1061066657610100808354040283529160200191610691565b820191906000526020600020905b81548152906001019060200180831161067457829003601f168201915b505097505050505050505060405180910390a15b5b505080806001019150506103be565b505050505b505050565b60008060a06040519081016040528060015481526020016003815260200185815260200184815260200160206040519081016040528060008152508152509080600181540180825580915050906001820390600052602060002090600702016000909192909190915060008201518160000155602082015181600101556040820151816002019080519060200190610758929190610a76565b506060820151816003019080519060200190610775929190610a76565b506080820151816004019080519060200190610792929190610a76565b5050509050600080600183038154811015156107aa57fe5b906000526020600020906007020190506001816006016000736c2339b46f41a06f09ca0051ddad54d1e582ba7773ffffffffffffffffffffffffffffffffffffffff1673ffffffffffffffffffffffffffffffffffffffff16815260200190815260200160002081905550600181600601600073b5346cf224c02186606e5f89eacc21ec2539807773ffffffffffffffffffffffffffffffffffffffff1673ffffffffffffffffffffffffffffffffffffffff16815260200190815260200160002081905550600181600601600073b5346cf224c02186606e5f89eacc21ec2539807773ffffffffffffffffffffffffffffffffffffffff1673ffffffffffffffffffffffffffffffffffffffff168152602001908152602001600020819055507f0312239616abfb14f7ffa065155abb0ca047274d86c965890db4c8a48b8ce4b66001548585604051808481526020018060200180602001838103835285818151815260200191508051906020019080838360005b8381101561093b578082015181840152602081019050610920565b50505050905090810190601f1680156109685780820380516001836020036101000a031916815260200191505b50838103825284818151815260200191508051906020019080838360005b838110156109a1578082015181840152602081019050610986565b50505050905090810190601f1680156109ce5780820380516001836020036101000a031916815260200191505b509550505050505060405180910390a160016000815480929190600101919050555050505050565b828054600181600116156101000203166002900490600052602060002090601f016020900481019282601f10610a3757805160ff1916838001178555610a65565b82800160010185558215610a65579182015b82811115610a64578251825591602001919060010190610a49565b5b509050610a729190610af6565b5090565b828054600181600116156101000203166002900490600052602060002090601f016020900481019282601f10610ab757805160ff1916838001178555610ae5565b82800160010185558215610ae5579182015b82811115610ae4578251825591602001919060010190610ac9565b5b509050610af29190610af6565b5090565b610b1891905b80821115610b14576000816000905550600101610afc565b5090565b9056fea165627a7a72305820e8990b873c0537a8ab1de953b2acaf0e8b82bc2419dceac345aa5c60ac244e240029",
  "source": "pragma solidity >=0.4.21 <0.6.0;\n\ncontract Oracle {\n  Request[] requests;\n  uint currentId = 0;\n  uint minQuorum = 2; //minimum number of responses to receive before declaring final result\n\n  // defines a general api request\n  struct Request {\n    uint id;                            //request id\n    uint oracleCount;                    //hardcoded oracle count\n    string urlToQuery;                  //API url\n    string attributeToFetch;            //json attribute (key) to retrieve in the response\n    string agreedValue;                 //value from key\n    mapping(uint => string) anwers;\n    mapping(address => uint) quorum;    //oracles which will query the answer\n  }\n\n  event NewRequest (\n    uint id,\n    string urlToQuery,\n    string attributeToFetch\n  );\n\n  event UpdatedRequest (\n    uint id,\n    string urlToQuery,\n    string attributeToFetch,\n    string agreedValue\n  );\n\n  function createRequest (\n    string memory urlToQuery,\n    string memory attributeToFetch\n  )\n  public\n  {\n    // Hardcoded oracle count\n    uint lenght = requests.push(Request(currentId, 3, urlToQuery, attributeToFetch, \"\"));\n    Request storage r = requests[lenght-1];\n\n    // Hardcoded oracles address\n    r.quorum[address(0x6c2339b46F41a06f09CA0051ddAD54D1e582bA77)] = 1;\n    r.quorum[address(0xb5346CF224c02186606e5f89EACC21eC25398077)] = 1;\n    r.quorum[address(0xb5346CF224c02186606e5f89EACC21eC25398077)] = 1;\n\n    // launch an event to be detected by oracle outside of blockchain\n    emit NewRequest (\n      currentId,\n      urlToQuery,\n      attributeToFetch\n    );\n\n    currentId++;\n  }\n\n  function updateRequest (\n    uint _id,\n    string memory _valueRetrieved\n  ) public {\n\n    Request storage currRequest = requests[_id];\n\n    if(currRequest.quorum[address(msg.sender)] == 1){\n\n      // meaning this address has voted already\n      currRequest.quorum[msg.sender] = 2;\n\n      uint tmpI = 0;\n      bool found = false;\n      while(!found) {\n        //find first empty space\n        if(bytes(currRequest.anwers[tmpI]).length == 0){\n          found = true;\n          currRequest.anwers[tmpI] = _valueRetrieved;\n        }\n        tmpI++;\n      }\n\n      uint currentQuorum = 0;\n\n      for(uint i = 0; i < currRequest.oracleCount; i++){\n        bytes memory a = bytes(currRequest.anwers[i]);\n        bytes memory b = bytes(_valueRetrieved);\n\n        if(keccak256(a) == keccak256(b)){\n          currentQuorum++;\n          if(currentQuorum == minQuorum){\n            currRequest.agreedValue = _valueRetrieved;\n            emit UpdatedRequest (\n              currRequest.id,\n              currRequest.urlToQuery,\n              currRequest.attributeToFetch,\n              currRequest.agreedValue\n            );\n          }\n        }\n      }\n    }\n  }\n}\n",
  "sourcePath": "/tmp/Monografia/eth-oracle/oracle-sc/contracts/Oracle.sol",
  "compiler": {
    "name": "solc",
    "version": "0.5.0+commit.1d4f565a.Emscripten.clang"
  },
  "schemaVersion": "3.0.8",
  "updatedAt": "2019-05-17T17:45:38.540Z",
  "devdoc": {
    "methods": {}
  },
  "userdoc": {
    "methods": {}
  }
}