{
  "contractName": "Oracle",
  "abi": [
    {
      "constant": true,
      "inputs": [],
      "name": "oracleAddress",
      "outputs": [
        {
          "name": "",
          "type": "address"
        }
      ],
      "payable": false,
      "stateMutability": "view",
      "type": "function",
      "signature": "0xa89ae4ba"
    },
    {
      "inputs": [
        {
          "name": "_oracleAddress",
          "type": "address"
        }
      ],
      "payable": false,
      "stateMutability": "nonpayable",
      "type": "constructor",
      "signature": "constructor"
    },
    {
      "anonymous": false,
      "inputs": [
        {
          "indexed": false,
          "name": "id",
          "type": "uint256"
        },
        {
          "indexed": false,
          "name": "urlToQuery",
          "type": "string"
        },
        {
          "indexed": false,
          "name": "attributeToFetch",
          "type": "string"
        }
      ],
      "name": "NewRequest",
      "type": "event",
      "signature": "0x0312239616abfb14f7ffa065155abb0ca047274d86c965890db4c8a48b8ce4b6"
    },
    {
      "anonymous": false,
      "inputs": [
        {
          "indexed": false,
          "name": "id",
          "type": "uint256"
        },
        {
          "indexed": false,
          "name": "urlToQuery",
          "type": "string"
        },
        {
          "indexed": false,
          "name": "attributeToFetch",
          "type": "string"
        },
        {
          "indexed": false,
          "name": "valueRetrieved",
          "type": "string"
        }
      ],
      "name": "UpdatedRequest",
      "type": "event",
      "signature": "0x51f1e1f00d186e79f8ea7c82be079fcdd49fe881904a9cdc1903345eb69d3831"
    },
    {
      "constant": false,
      "inputs": [
        {
          "name": "urlToQuery",
          "type": "string"
        },
        {
          "name": "attributeToFetch",
          "type": "string"
        }
      ],
      "name": "createRequest",
      "outputs": [],
      "payable": false,
      "stateMutability": "nonpayable",
      "type": "function",
      "signature": "0xdf89f819"
    },
    {
      "constant": false,
      "inputs": [
        {
          "name": "id",
          "type": "uint256"
        },
        {
          "name": "valueRetrieved",
          "type": "string"
        }
      ],
      "name": "updateRequest",
      "outputs": [],
      "payable": false,
      "stateMutability": "nonpayable",
      "type": "function",
      "signature": "0xcfb0ac99"
    }
  ],
  "bytecode": "0x6080604052600060025534801561001557600080fd5b5060405160208061095a8339810180604052602081101561003557600080fd5b8101908080519060200190929190505050806000806101000a81548173ffffffffffffffffffffffffffffffffffffffff021916908373ffffffffffffffffffffffffffffffffffffffff160217905550506108c4806100966000396000f3fe608060405260043610610057576000357c0100000000000000000000000000000000000000000000000000000000900463ffffffff168063a89ae4ba1461005c578063cfb0ac99146100b3578063df89f81914610185575b600080fd5b34801561006857600080fd5b506100716102e4565b604051808273ffffffffffffffffffffffffffffffffffffffff1673ffffffffffffffffffffffffffffffffffffffff16815260200191505060405180910390f35b3480156100bf57600080fd5b50610183600480360360408110156100d657600080fd5b8101908080359060200190929190803590602001906401000000008111156100fd57600080fd5b82018360208201111561010f57600080fd5b8035906020019184600183028401116401000000008311171561013157600080fd5b91908080601f016020809104026020016040519081016040528093929190818152602001838380828437600081840152601f19601f820116905080830192505050505050509192919290505050610309565b005b34801561019157600080fd5b506102e2600480360360408110156101a857600080fd5b81019080803590602001906401000000008111156101c557600080fd5b8201836020820111156101d757600080fd5b803590602001918460018302840111640100000000831117156101f957600080fd5b91908080601f016020809104026020016040519081016040528093929190818152602001838380828437600081840152601f19601f8201169050808301925050505050505091929192908035906020019064010000000081111561025c57600080fd5b82018360208201111561026e57600080fd5b8035906020019184600183028401116401000000008311171561029057600080fd5b91908080601f016020809104026020016040519081016040528093929190818152602001838380828437600081840152601f19601f820116905080830192505050505050509192919290505050610585565b005b6000809054906101000a900473ffffffffffffffffffffffffffffffffffffffff1681565b6000809054906101000a900473ffffffffffffffffffffffffffffffffffffffff1673ffffffffffffffffffffffffffffffffffffffff163373ffffffffffffffffffffffffffffffffffffffff1614151561036457600080fd5b600060018381548110151561037557fe5b906000526020600020906004020190508181600301908051906020019061039d929190610773565b507f51f1e1f00d186e79f8ea7c82be079fcdd49fe881904a9cdc1903345eb69d38318160000154826001018360020184600301604051808581526020018060200180602001806020018481038452878181546001816001161561010002031660029004815260200191508054600181600116156101000203166002900480156104675780601f1061043c57610100808354040283529160200191610467565b820191906000526020600020905b81548152906001019060200180831161044a57829003601f168201915b50508481038352868181546001816001161561010002031660029004815260200191508054600181600116156101000203166002900480156104ea5780601f106104bf576101008083540402835291602001916104ea565b820191906000526020600020905b8154815290600101906020018083116104cd57829003601f168201915b505084810382528581815460018160011615610100020316600290048152602001915080546001816001161561010002031660029004801561056d5780601f106105425761010080835404028352916020019161056d565b820191906000526020600020905b81548152906001019060200180831161055057829003601f168201915b505097505050505050505060405180910390a1505050565b6001608060405190810160405280600254815260200184815260200183815260200160206040519081016040528060008152508152509080600181540180825580915050906001820390600052602060002090600402016000909192909190915060008201518160000155602082015181600101908051906020019061060c9291906107f3565b5060408201518160020190805190602001906106299291906107f3565b5060608201518160030190805190602001906106469291906107f3565b505050507f0312239616abfb14f7ffa065155abb0ca047274d86c965890db4c8a48b8ce4b66002548383604051808481526020018060200180602001838103835285818151815260200191508051906020019080838360005b838110156106ba57808201518184015260208101905061069f565b50505050905090810190601f1680156106e75780820380516001836020036101000a031916815260200191505b50838103825284818151815260200191508051906020019080838360005b83811015610720578082015181840152602081019050610705565b50505050905090810190601f16801561074d5780820380516001836020036101000a031916815260200191505b509550505050505060405180910390a16002600081548092919060010191905055505050565b828054600181600116156101000203166002900490600052602060002090601f016020900481019282601f106107b457805160ff19168380011785556107e2565b828001600101855582156107e2579182015b828111156107e15782518255916020019190600101906107c6565b5b5090506107ef9190610873565b5090565b828054600181600116156101000203166002900490600052602060002090601f016020900481019282601f1061083457805160ff1916838001178555610862565b82800160010185558215610862579182015b82811115610861578251825591602001919060010190610846565b5b50905061086f9190610873565b5090565b61089591905b80821115610891576000816000905550600101610879565b5090565b9056fea165627a7a7230582008c457e0bd36c306ec41929b39814fef1dbd920d3f67892f15792e44cbfe7a380029",
  "source": "pragma solidity >=0.4.21 <0.6.0;\n\ncontract Oracle {\n  address public oracleAddress; //address of the account running the oracle outside of the blockchain\n  Request[] requests;\n  uint currentId = 0;\n\n  // defines a general api request\n  struct Request {\n    uint id;                    //request id\n    string urlToQuery;          //API url\n    string attributeToFetch;    //json attribute (key) to retrieve in the response\n    string valueRetrieved;      //value from key\n  }\n\n  constructor (address _oracleAddress) public {\n    oracleAddress = _oracleAddress;\n  }\n\n  event NewRequest (\n    uint id,\n    string urlToQuery,\n    string attributeToFetch\n  );\n\n  event UpdatedRequest (\n    uint id,\n    string urlToQuery,\n    string attributeToFetch,\n    string valueRetrieved\n  );\n\n  function createRequest (\n    string memory urlToQuery,\n    string memory attributeToFetch\n  )\n  public\n  {\n    requests.push(Request(currentId, urlToQuery, attributeToFetch, \"\"));\n\n    // launch an event to be detected by oracle outside of blockchain\n    emit NewRequest (\n      currentId,\n      urlToQuery,\n      attributeToFetch\n    );\n\n    currentId++;\n  }\n\n  function updateRequest (\n    uint id,\n    string memory valueRetrieved\n  ) public {\n    require(msg.sender == oracleAddress);\n\n    Request storage currRequest = requests[id];\n\n    currRequest.valueRetrieved = valueRetrieved;\n\n    // only for logging purposes\n    emit UpdatedRequest (\n      currRequest.id,\n      currRequest.urlToQuery,\n      currRequest.attributeToFetch,\n      currRequest.valueRetrieved\n    );\n\n  }\n}\n",
  "sourcePath": "/tmp/Monografia/eth-oracle/oracle-sc/contracts/Oracle.sol",
  "compiler": {
    "name": "solc",
    "version": "0.5.0+commit.1d4f565a.Emscripten.clang"
  },
  "schemaVersion": "3.0.8",
  "updatedAt": "2019-05-16T17:23:22.268Z",
  "devdoc": {
    "methods": {}
  },
  "userdoc": {
    "methods": {}
  }
}