{
  "contractName": "WeatherOracle",
  "abi": [
    {
      "constant": true,
      "inputs": [],
      "name": "oracleAddress",
      "outputs": [
        {
          "name": "",
          "type": "address"
        }
      ],
      "payable": false,
      "stateMutability": "view",
      "type": "function",
      "signature": "0xa89ae4ba"
    },
    {
      "inputs": [
        {
          "name": "_oracleAddress",
          "type": "address"
        }
      ],
      "payable": false,
      "stateMutability": "nonpayable",
      "type": "constructor",
      "signature": "constructor"
    },
    {
      "anonymous": false,
      "inputs": [
        {
          "indexed": false,
          "name": "weatherDescription",
          "type": "string"
        },
        {
          "indexed": false,
          "name": "temperature",
          "type": "string"
        },
        {
          "indexed": false,
          "name": "humidity",
          "type": "string"
        },
        {
          "indexed": false,
          "name": "visibility",
          "type": "string"
        },
        {
          "indexed": false,
          "name": "windSpeed",
          "type": "string"
        },
        {
          "indexed": false,
          "name": "windDirection",
          "type": "string"
        },
        {
          "indexed": false,
          "name": "windGust",
          "type": "string"
        }
      ],
      "name": "WeatherUpdate",
      "type": "event",
      "signature": "0xec6344556027118abac8448a3cc40772c47ba3078250f7e8f1b7dfed078f2082"
    },
    {
      "constant": false,
      "inputs": [
        {
          "name": "weatherDescription",
          "type": "string"
        },
        {
          "name": "temperature",
          "type": "string"
        },
        {
          "name": "humidity",
          "type": "string"
        },
        {
          "name": "visibility",
          "type": "string"
        },
        {
          "name": "windSpeed",
          "type": "string"
        },
        {
          "name": "windDirection",
          "type": "string"
        },
        {
          "name": "windGust",
          "type": "string"
        }
      ],
      "name": "updateWeather",
      "outputs": [],
      "payable": false,
      "stateMutability": "nonpayable",
      "type": "function",
      "signature": "0x929d1910"
    }
  ],
  "bytecode": "0x608060405234801561001057600080fd5b5060405160208061096a8339810180604052602081101561003057600080fd5b8101908080519060200190929190505050806000806101000a81548173ffffffffffffffffffffffffffffffffffffffff021916908373ffffffffffffffffffffffffffffffffffffffff160217905550506108d9806100916000396000f3fe60806040526004361061004c576000357c0100000000000000000000000000000000000000000000000000000000900463ffffffff168063929d191014610051578063a89ae4ba146104a3575b600080fd5b34801561005d57600080fd5b506104a1600480360360e081101561007457600080fd5b810190808035906020019064010000000081111561009157600080fd5b8201836020820111156100a357600080fd5b803590602001918460018302840111640100000000831117156100c557600080fd5b91908080601f016020809104026020016040519081016040528093929190818152602001838380828437600081840152601f19601f8201169050808301925050505050505091929192908035906020019064010000000081111561012857600080fd5b82018360208201111561013a57600080fd5b8035906020019184600183028401116401000000008311171561015c57600080fd5b91908080601f016020809104026020016040519081016040528093929190818152602001838380828437600081840152601f19601f820116905080830192505050505050509192919290803590602001906401000000008111156101bf57600080fd5b8201836020820111156101d157600080fd5b803590602001918460018302840111640100000000831117156101f357600080fd5b91908080601f016020809104026020016040519081016040528093929190818152602001838380828437600081840152601f19601f8201169050808301925050505050505091929192908035906020019064010000000081111561025657600080fd5b82018360208201111561026857600080fd5b8035906020019184600183028401116401000000008311171561028a57600080fd5b91908080601f016020809104026020016040519081016040528093929190818152602001838380828437600081840152601f19601f820116905080830192505050505050509192919290803590602001906401000000008111156102ed57600080fd5b8201836020820111156102ff57600080fd5b8035906020019184600183028401116401000000008311171561032157600080fd5b91908080601f016020809104026020016040519081016040528093929190818152602001838380828437600081840152601f19601f8201169050808301925050505050505091929192908035906020019064010000000081111561038457600080fd5b82018360208201111561039657600080fd5b803590602001918460018302840111640100000000831117156103b857600080fd5b91908080601f016020809104026020016040519081016040528093929190818152602001838380828437600081840152601f19601f8201169050808301925050505050505091929192908035906020019064010000000081111561041b57600080fd5b82018360208201111561042d57600080fd5b8035906020019184600183028401116401000000008311171561044f57600080fd5b91908080601f016020809104026020016040519081016040528093929190818152602001838380828437600081840152601f19601f8201169050808301925050505050505091929192905050506104fa565b005b3480156104af57600080fd5b506104b8610888565b604051808273ffffffffffffffffffffffffffffffffffffffff1673ffffffffffffffffffffffffffffffffffffffff16815260200191505060405180910390f35b6000809054906101000a900473ffffffffffffffffffffffffffffffffffffffff1673ffffffffffffffffffffffffffffffffffffffff163373ffffffffffffffffffffffffffffffffffffffff1614151561055557600080fd5b7fec6344556027118abac8448a3cc40772c47ba3078250f7e8f1b7dfed078f208287878787878787604051808060200180602001806020018060200180602001806020018060200188810388528f818151815260200191508051906020019080838360005b838110156105d55780820151818401526020810190506105ba565b50505050905090810190601f1680156106025780820380516001836020036101000a031916815260200191505b5088810387528e818151815260200191508051906020019080838360005b8381101561063b578082015181840152602081019050610620565b50505050905090810190601f1680156106685780820380516001836020036101000a031916815260200191505b5088810386528d818151815260200191508051906020019080838360005b838110156106a1578082015181840152602081019050610686565b50505050905090810190601f1680156106ce5780820380516001836020036101000a031916815260200191505b5088810385528c818151815260200191508051906020019080838360005b838110156107075780820151818401526020810190506106ec565b50505050905090810190601f1680156107345780820380516001836020036101000a031916815260200191505b5088810384528b818151815260200191508051906020019080838360005b8381101561076d578082015181840152602081019050610752565b50505050905090810190601f16801561079a5780820380516001836020036101000a031916815260200191505b5088810383528a818151815260200191508051906020019080838360005b838110156107d35780820151818401526020810190506107b8565b50505050905090810190601f1680156108005780820380516001836020036101000a031916815260200191505b50888103825289818151815260200191508051906020019080838360005b8381101561083957808201518184015260208101905061081e565b50505050905090810190601f1680156108665780820380516001836020036101000a031916815260200191505b509e50505050505050505050505050505060405180910390a150505050505050565b6000809054906101000a900473ffffffffffffffffffffffffffffffffffffffff168156fea165627a7a723058204851de3084c5e973867a99f1242b5ae19641f41fcf8e77c25e28aa1c965b01340029",
  "source": "pragma solidity >=0.4.21 <0.6.0;\n\n\ncontract WeatherOracle {\n  address public oracleAddress;\n\n  constructor (address _oracleAddress) public {\n    oracleAddress = _oracleAddress;\n  }\n\n  event WeatherUpdate (\n    string weatherDescription,\n    string temperature,\n    string humidity,\n    string visibility,\n    string windSpeed,\n    string windDirection,\n    string windGust\n  );\n\n  function updateWeather (\n    string memory weatherDescription,\n    string memory temperature,\n    string memory humidity,\n    string memory visibility,\n    string memory windSpeed,\n    string memory windDirection,\n    string memory windGust\n  )\n  public\n  {\n    require(msg.sender == oracleAddress);\n\n\n    emit WeatherUpdate (\n      weatherDescription,\n      temperature,\n      humidity,\n      visibility,\n      windSpeed,\n      windDirection,\n      windGust\n    );\n  }\n}\n",
  "sourcePath": "/tmp/Monografia/eth-oracle/oracle-sc/contracts/WeatherOracle.sol",
  "compiler": {
    "name": "solc",
    "version": "0.5.0+commit.1d4f565a.Emscripten.clang"
  },
  "schemaVersion": "3.0.8",
  "updatedAt": "2019-05-15T14:05:48.119Z"
}